{
  "contractName": "EtherVault",
  "abi": [
    {
      "constant": true,
      "inputs": [
        {
          "name": "",
          "type": "address"
        }
      ],
      "name": "balance",
      "outputs": [
        {
          "name": "",
          "type": "uint256"
        }
      ],
      "payable": false,
      "stateMutability": "view",
      "type": "function"
    },
    {
      "payable": true,
      "stateMutability": "payable",
      "type": "fallback"
    },
    {
      "constant": false,
      "inputs": [
        {
          "name": "toWithdraw",
          "type": "uint256"
        }
      ],
      "name": "withdraw",
      "outputs": [],
      "payable": true,
      "stateMutability": "payable",
      "type": "function"
    }
  ],
  "bytecode": "0x608060405234801561001057600080fd5b50610272806100206000396000f3fe60806040526004361061004c576000357c0100000000000000000000000000000000000000000000000000000000900463ffffffff1680632e1a7d4d1461009a578063e3d670d7146100c8575b346000803373ffffffffffffffffffffffffffffffffffffffff1673ffffffffffffffffffffffffffffffffffffffff16815260200190815260200160002060008282540192505081905550005b6100c6600480360360208110156100b057600080fd5b810190808035906020019092919050505061012d565b005b3480156100d457600080fd5b50610117600480360360208110156100eb57600080fd5b81019080803573ffffffffffffffffffffffffffffffffffffffff16906020019092919050505061022e565b6040518082815260200191505060405180910390f35b6000803373ffffffffffffffffffffffffffffffffffffffff1673ffffffffffffffffffffffffffffffffffffffff168152602001908152602001600020548110151561017957600080fd5b3373ffffffffffffffffffffffffffffffffffffffff168160405180600001905060006040518083038185875af1925050503d80600081146101d7576040519150601f19603f3d011682016040523d82523d6000602084013e6101dc565b606091505b505050806000803373ffffffffffffffffffffffffffffffffffffffff1673ffffffffffffffffffffffffffffffffffffffff1681526020019081526020016000206000828254039250508190555050565b6000602052806000526040600020600091509050548156fea165627a7a72305820be9987a50b978341c5b75755b63230f8c021cb9129ad7f13d5ece3dd3a9872420029",
  "source": "pragma solidity 0.5.0;\n\ncontract EtherVault {\n    mapping(address => uint256) public balance;\n    \n    function withdraw(uint toWithdraw) public payable {\n        require(toWithdraw < balance[msg.sender]);\n        msg.sender.call.value(toWithdraw)(\"\");\n        balance[msg.sender] -= toWithdraw;\n    }\n    \n    function() external payable {\n        balance[msg.sender] += msg.value;\n    }\n}",
  "sourcePath": "/Users/ernestognw/Documents/Blockdemy/workshops/reentrancy-attack/contracts/EtherVault.sol",
  "compiler": {
    "name": "solc",
    "version": "0.5.0+commit.1d4f565a.Emscripten.clang"
  },
  "schemaVersion": "3.3.2",
  "updatedAt": "2020-11-06T22:47:42.557Z",
  "networkType": "ethereum",
  "devdoc": {
    "methods": {}
  },
  "userdoc": {
    "methods": {}
  }
}